{
  "contractName": "CFP",
  "abi": [
    {
      "inputs": [
        {
          "internalType": "bytes32",
          "name": "callId_",
          "type": "bytes32"
        },
        {
          "internalType": "uint256",
          "name": "closingTime_",
          "type": "uint256"
        }
      ],
      "stateMutability": "nonpayable",
      "type": "constructor"
    },
    {
      "anonymous": false,
      "inputs": [
        {
          "indexed": true,
          "internalType": "bytes32",
          "name": "proposal",
          "type": "bytes32"
        },
        {
          "indexed": true,
          "internalType": "address",
          "name": "sender",
          "type": "address"
        },
        {
          "indexed": false,
          "internalType": "uint256",
          "name": "blockNumber",
          "type": "uint256"
        }
      ],
      "name": "ProposalRegistered",
      "type": "event"
    },
    {
      "inputs": [
        {
          "internalType": "bytes32",
          "name": "proposal",
          "type": "bytes32"
        }
      ],
      "name": "proposalData",
      "outputs": [
        {
          "components": [
            {
              "internalType": "address",
              "name": "sender",
              "type": "address"
            },
            {
              "internalType": "uint256",
              "name": "blockNumber",
              "type": "uint256"
            },
            {
              "internalType": "uint256",
              "name": "timestamp",
              "type": "uint256"
            }
          ],
          "internalType": "struct CFP.ProposalData",
          "name": "",
          "type": "tuple"
        }
      ],
      "stateMutability": "view",
      "type": "function"
    },
    {
      "inputs": [
        {
          "internalType": "uint256",
          "name": "index",
          "type": "uint256"
        }
      ],
      "name": "proposals",
      "outputs": [
        {
          "internalType": "bytes32",
          "name": "",
          "type": "bytes32"
        }
      ],
      "stateMutability": "view",
      "type": "function"
    },
    {
      "inputs": [],
      "name": "closingTime",
      "outputs": [
        {
          "internalType": "uint256",
          "name": "",
          "type": "uint256"
        }
      ],
      "stateMutability": "view",
      "type": "function"
    },
    {
      "inputs": [],
      "name": "callId",
      "outputs": [
        {
          "internalType": "bytes32",
          "name": "",
          "type": "bytes32"
        }
      ],
      "stateMutability": "view",
      "type": "function"
    },
    {
      "inputs": [],
      "name": "creator",
      "outputs": [
        {
          "internalType": "address",
          "name": "",
          "type": "address"
        }
      ],
      "stateMutability": "view",
      "type": "function"
    },
    {
      "inputs": [],
      "name": "proposalCount",
      "outputs": [
        {
          "internalType": "uint256",
          "name": "",
          "type": "uint256"
        }
      ],
      "stateMutability": "view",
      "type": "function"
    },
    {
      "inputs": [
        {
          "internalType": "bytes32",
          "name": "proposal",
          "type": "bytes32"
        }
      ],
      "name": "proposalTimestamp",
      "outputs": [
        {
          "internalType": "uint256",
          "name": "",
          "type": "uint256"
        }
      ],
      "stateMutability": "view",
      "type": "function"
    },
    {
      "inputs": [
        {
          "internalType": "bytes32",
          "name": "proposal",
          "type": "bytes32"
        }
      ],
      "name": "registerProposal",
      "outputs": [],
      "stateMutability": "nonpayable",
      "type": "function"
    },
    {
      "inputs": [
        {
          "internalType": "bytes32",
          "name": "proposal",
          "type": "bytes32"
        },
        {
          "internalType": "address",
          "name": "sender",
          "type": "address"
        }
      ],
      "name": "registerProposalFor",
      "outputs": [],
      "stateMutability": "nonpayable",
      "type": "function"
    }
  ],
  "bytecode": "0x60e06040523480156200001157600080fd5b5060405162000ee638038062000ee6833981810160405281019062000037919062000143565b4281116200007c576040517f08c379a0000000000000000000000000000000000000000000000000000000008152600401620000739062000211565b60405180910390fd5b81608081815250508060a081815250503373ffffffffffffffffffffffffffffffffffffffff1660c08173ffffffffffffffffffffffffffffffffffffffff1681525050505062000233565b600080fd5b6000819050919050565b620000e281620000cd565b8114620000ee57600080fd5b50565b6000815190506200010281620000d7565b92915050565b6000819050919050565b6200011d8162000108565b81146200012957600080fd5b50565b6000815190506200013d8162000112565b92915050565b600080604083850312156200015d576200015c620000c8565b5b60006200016d85828601620000f1565b925050602062000180858286016200012c565b9150509250929050565b600082825260208201905092915050565b7f456c20636965727265206465206c6120636f6e766f6361746f726961206e6f2060008201527f707565646520657374617220656e20656c2070617361646f0000000000000000602082015250565b6000620001f96038836200018a565b915062000206826200019b565b604082019050919050565b600060208201905081810360008301526200022c81620001ea565b9050919050565b60805160a05160c051610c6e620002786000396000818161024f0152610468015260008181610296015281816102bd01526104f70152600061060f0152610c6e6000f3fe608060405234801561001057600080fd5b50600436106100935760003560e01c80635dcfbcc2116100665780635dcfbcc2146101345780636424e719146101505780639c9cbf9c14610180578063d955cb001461019c578063da35c664146101ba57610093565b8063013cf08b1461009857806302d05d3f146100c85780633696b787146100e65780634b6753bc14610116575b600080fd5b6100b260048036038101906100ad91906107d5565b6101d8565b6040516100bf919061081b565b60405180910390f35b6100d061024b565b6040516100dd9190610877565b60405180910390f35b61010060048036038101906100fb91906108be565b610273565b60405161010d91906108fa565b60405180910390f35b61011e610292565b60405161012b91906108fa565b60405180910390f35b61014e600480360381019061014991906108be565b6102ba565b005b61016a600480360381019061016591906108be565b6103d0565b6040516101779190610975565b60405180910390f35b61019a600480360381019061019591906109bc565b610466565b005b6101a461060b565b6040516101b1919061081b565b60405180910390f35b6101c2610633565b6040516101cf91906108fa565b60405180910390f35b600081600180549050808210610223576040517f08c379a000000000000000000000000000000000000000000000000000000000815260040161021a90610a59565b60405180910390fd5b6001848154811061023757610236610a79565b5b906000526020600020015492505050919050565b60007f0000000000000000000000000000000000000000000000000000000000000000905090565b6000806000838152602001908152602001600020600201549050919050565b60007f0000000000000000000000000000000000000000000000000000000000000000905090565b807f000000000000000000000000000000000000000000000000000000000000000042111561031e576040517f08c379a000000000000000000000000000000000000000000000000000000000815260040161031590610af4565b60405180910390fd5b600073ffffffffffffffffffffffffffffffffffffffff1660008083815260200190815260200160002060000160009054906101000a900473ffffffffffffffffffffffffffffffffffffffff1673ffffffffffffffffffffffffffffffffffffffff16146103c2576040517f08c379a00000000000000000000000000000000000000000000000000000000081526004016103b990610b86565b60405180910390fd5b6103cc8233610640565b5050565b6103d8610763565b6000808381526020019081526020016000206040518060600160405290816000820160009054906101000a900473ffffffffffffffffffffffffffffffffffffffff1673ffffffffffffffffffffffffffffffffffffffff1673ffffffffffffffffffffffffffffffffffffffff168152602001600182015481526020016002820154815250509050919050565b7f000000000000000000000000000000000000000000000000000000000000000073ffffffffffffffffffffffffffffffffffffffff163373ffffffffffffffffffffffffffffffffffffffff16146104f4576040517f08c379a00000000000000000000000000000000000000000000000000000000081526004016104eb90610c18565b60405180910390fd5b817f0000000000000000000000000000000000000000000000000000000000000000421115610558576040517f08c379a000000000000000000000000000000000000000000000000000000000815260040161054f90610af4565b60405180910390fd5b600073ffffffffffffffffffffffffffffffffffffffff1660008083815260200190815260200160002060000160009054906101000a900473ffffffffffffffffffffffffffffffffffffffff1673ffffffffffffffffffffffffffffffffffffffff16146105fc576040517f08c379a00000000000000000000000000000000000000000000000000000000081526004016105f390610b86565b60405180910390fd5b6106068383610640565b505050565b60007f0000000000000000000000000000000000000000000000000000000000000000905090565b6000600180549050905090565b600060405180606001604052808373ffffffffffffffffffffffffffffffffffffffff1681526020014381526020014281525090508060008085815260200190815260200160002060008201518160000160006101000a81548173ffffffffffffffffffffffffffffffffffffffff021916908373ffffffffffffffffffffffffffffffffffffffff160217905550602082015181600101556040820151816002015590505060018390806001815401808255809150506001900390600052602060002001600090919091909150558173ffffffffffffffffffffffffffffffffffffffff16837f1a26f048630a7f2b9229c19a042fe677bbbad402ecb8f3fa77f9c4a3f98cae944360405161075691906108fa565b60405180910390a3505050565b6040518060600160405280600073ffffffffffffffffffffffffffffffffffffffff16815260200160008152602001600081525090565b600080fd5b6000819050919050565b6107b28161079f565b81146107bd57600080fd5b50565b6000813590506107cf816107a9565b92915050565b6000602082840312156107eb576107ea61079a565b5b60006107f9848285016107c0565b91505092915050565b6000819050919050565b61081581610802565b82525050565b6000602082019050610830600083018461080c565b92915050565b600073ffffffffffffffffffffffffffffffffffffffff82169050919050565b600061086182610836565b9050919050565b61087181610856565b82525050565b600060208201905061088c6000830184610868565b92915050565b61089b81610802565b81146108a657600080fd5b50565b6000813590506108b881610892565b92915050565b6000602082840312156108d4576108d361079a565b5b60006108e2848285016108a9565b91505092915050565b6108f48161079f565b82525050565b600060208201905061090f60008301846108eb565b92915050565b61091e81610856565b82525050565b61092d8161079f565b82525050565b6060820160008201516109496000850182610915565b50602082015161095c6020850182610924565b50604082015161096f6040850182610924565b50505050565b600060608201905061098a6000830184610933565b92915050565b61099981610856565b81146109a457600080fd5b50565b6000813590506109b681610990565b92915050565b600080604083850312156109d3576109d261079a565b5b60006109e1858286016108a9565b92505060206109f2858286016109a7565b9150509250929050565b600082825260208201905092915050565b7f496e646963652066756572612064652072616e676f0000000000000000000000600082015250565b6000610a436015836109fc565b9150610a4e82610a0d565b602082019050919050565b60006020820190508181036000830152610a7281610a36565b9050919050565b7f4e487b7100000000000000000000000000000000000000000000000000000000600052603260045260246000fd5b7f436f6e766f6361746f7269612063657272616461000000000000000000000000600082015250565b6000610ade6014836109fc565b9150610ae982610aa8565b602082019050919050565b60006020820190508181036000830152610b0d81610ad1565b9050919050565b7f4c612070726f707565737461207961206861207369646f20726567697374726160008201527f6461000000000000000000000000000000000000000000000000000000000000602082015250565b6000610b706022836109fc565b9150610b7b82610b14565b604082019050919050565b60006020820190508181036000830152610b9f81610b63565b9050919050565b7f536f6c6f20656c2063726561646f72207075656465206861636572206573746160008201527f206c6c616d616461000000000000000000000000000000000000000000000000602082015250565b6000610c026028836109fc565b9150610c0d82610ba6565b604082019050919050565b60006020820190508181036000830152610c3181610bf5565b905091905056fea2646970667358221220ea2a464882a0d022de961dc9805b8614e7e80ffa7823c583e6e8e3299393eb1164736f6c63430008130033",
  "immutableReferences": {
    "18": [
      {
        "length": 32,
        "start": 1551
      }
    ],
    "20": [
      {
        "length": 32,
        "start": 662
      },
      {
        "length": 32,
        "start": 701
      },
      {
        "length": 32,
        "start": 1271
      }
    ],
    "22": [
      {
        "length": 32,
        "start": 591
      },
      {
        "length": 32,
        "start": 1128
      }
    ]
  },
  "source": "// // SPDX-License-Identifier: MIT\npragma solidity ^0.8.19;\n\ncontract CFP {\n    // Evento que se emite cuando alguien registra una propuesta\n    event ProposalRegistered(\n        bytes32 indexed proposal,\n        address indexed sender,\n        uint256 blockNumber\n    );\n\n    // Estructura que representa una propuesta\n    struct ProposalData {\n        address sender;\n        uint256 blockNumber;\n        uint256 timestamp;\n    }\n\n    // Identificador del llamado\n    bytes32 private immutable _callId;\n\n    // Timestamp del cierre del llamado\n    uint256 private immutable _closingTime;\n\n    // Direccin del creador del llamado\n    address private immutable _owner;\n\n    // Mapeo de identificadores de propuestas a sus datos\n    mapping(bytes32 => ProposalData) private _proposalData;\n\n    // Lista de todas las propuestas registradas\n    bytes32[] private _proposals;\n\n    // Construye un llamado con un identificador y un tiempo de cierre\n    constructor(bytes32 callId_, uint256 closingTime_) {\n        require(\n            closingTime_ > block.timestamp,\n            \"El cierre de la convocatoria no puede estar en el pasado\"\n        );\n        _callId = callId_;\n        _closingTime = closingTime_;\n        _owner = msg.sender;\n    }\n\n    modifier onlyOwner() {\n        require(\n            msg.sender == _owner,\n            \"Solo el creador puede hacer esta llamada\"\n        );\n        _;\n    }\n\n    modifier isValidProposal(bytes32 proposal) {\n        require(block.timestamp <= _closingTime, \"Convocatoria cerrada\");\n        require(\n            _proposalData[proposal].sender == address(0),\n            \"La propuesta ya ha sido registrada\"\n        );\n        _;\n    }\n\n    modifier isValidIndex(uint index, uint length) {\n        require(index < length, \"Indice fuera de rango\");\n        _;\n    }\n\n    // Devuelve los datos asociados con una propuesta\n    function proposalData(\n        bytes32 proposal\n    ) public view returns (ProposalData memory) {\n        return _proposalData[proposal];\n    }\n\n    // Devuelve la propuesta en la posicin dada\n    function proposals(\n        uint256 index\n    ) public view isValidIndex(index, _proposals.length) returns (bytes32) {\n        return _proposals[index];\n    }\n\n    // Devuelve el timestamp de cierre del llamado\n    function closingTime() public view returns (uint256) {\n        return _closingTime;\n    }\n\n    // Devuelve el identificador del llamado\n    function callId() public view returns (bytes32) {\n        return _callId;\n    }\n\n    // Devuelve el creador del llamado\n    function creator() public view returns (address) {\n        return _owner;\n    }\n\n    // Devuelve la cantidad total de propuestas registradas\n    function proposalCount() public view returns (uint256) {\n        return _proposals.length;\n    }\n\n    // Devuelve el timestamp en que se registr una propuesta\n    function proposalTimestamp(bytes32 proposal) public view returns (uint256) {\n        return _proposalData[proposal].timestamp;\n    }\n\n    // Registra una nueva propuesta enviada por el autor del mensaje\n    function registerProposal(bytes32 proposal) public isValidProposal(proposal) {\n        _registerProposal(proposal, msg.sender);\n    }\n\n    // Registra una nueva propuesta para un emisor especfico\n    function registerProposalFor(\n        bytes32 proposal,\n        address sender\n    ) public onlyOwner isValidProposal(proposal) {\n        _registerProposal(proposal, sender);\n    }\n\n    // Funcin interna para registrar una propuesta\n    function _registerProposal(bytes32 proposal, address sender) private {\n        ProposalData memory data = ProposalData({\n            sender: sender,\n            blockNumber: block.number,\n            timestamp: block.timestamp\n        });\n        _proposalData[proposal] = data;\n        _proposals.push(proposal);\n        emit ProposalRegistered(proposal, sender, block.number);\n    }\n}\n",
  "sourcePath": "/home/simonll4/Desktop/blockchain-llamosas/TP/10/contracts/contracts/CFP.sol",
  "compiler": {
    "name": "solc",
    "version": "0.8.19+commit.7dd6d404.Emscripten.clang"
  },
  "schemaVersion": "3.4.16",
  "updatedAt": "2025-06-02T18:57:24.001Z",
  "devdoc": {
    "kind": "dev",
    "methods": {},
    "version": 1
  },
  "userdoc": {
    "kind": "user",
    "methods": {},
    "version": 1
  }
}